{
  "_format": "hh-sol-artifact-1",
  "contractName": "UniswapV2Swapper",
  "sourceName": "contracts/airUSDSwappers/UniswapV2Swapper.sol",
  "abi": [
    {
      "inputs": [
        {
          "internalType": "address",
          "name": "_uniswapV2Router",
          "type": "address"
        },
        {
          "internalType": "address",
          "name": "_tokenIn",
          "type": "address"
        },
        {
          "internalType": "address",
          "name": "_tokenOut",
          "type": "address"
        },
        {
          "internalType": "address[]",
          "name": "_path",
          "type": "address[]"
        }
      ],
      "stateMutability": "nonpayable",
      "type": "constructor"
    },
    {
      "inputs": [
        {
          "internalType": "uint256",
          "name": "",
          "type": "uint256"
        }
      ],
      "name": "path",
      "outputs": [
        {
          "internalType": "address",
          "name": "",
          "type": "address"
        }
      ],
      "stateMutability": "view",
      "type": "function"
    },
    {
      "inputs": [
        {
          "internalType": "uint256",
          "name": "_amountIn",
          "type": "uint256"
        },
        {
          "internalType": "address",
          "name": "_to",
          "type": "address"
        }
      ],
      "name": "swap",
      "outputs": [
        {
          "internalType": "uint256",
          "name": "amountOut",
          "type": "uint256"
        }
      ],
      "stateMutability": "nonpayable",
      "type": "function"
    },
    {
      "inputs": [],
      "name": "tokenIn",
      "outputs": [
        {
          "internalType": "address",
          "name": "",
          "type": "address"
        }
      ],
      "stateMutability": "view",
      "type": "function"
    },
    {
      "inputs": [],
      "name": "tokenOut",
      "outputs": [
        {
          "internalType": "address",
          "name": "",
          "type": "address"
        }
      ],
      "stateMutability": "view",
      "type": "function"
    },
    {
      "inputs": [],
      "name": "uniswapV2Router",
      "outputs": [
        {
          "internalType": "address",
          "name": "",
          "type": "address"
        }
      ],
      "stateMutability": "view",
      "type": "function"
    }
  ],
  "bytecode": "0x60806040523480156200001157600080fd5b5060405162000c6738038062000c67833981016040819052620000349162000255565b816001600160a01b0316836001600160a01b031614156200008c5760405162461bcd60e51b815260206004820152600d60248201526c34b73b30b634b2103a37b5b2b760991b60448201526064015b60405180910390fd5b826001600160a01b031681600081518110620000ac57620000ac62000360565b60200260200101516001600160a01b0316148015620001075750816001600160a01b03168160018351620000e1919062000376565b81518110620000f457620000f462000360565b60200260200101516001600160a01b0316145b620001445760405162461bcd60e51b815260206004820152600c60248201526b0d2dcecc2d8d2c840e0c2e8d60a31b604482015260640162000083565b600080546001600160a01b038087166001600160a01b031992831617909255600180548684169083161790556002805492851692909116919091179055805162000196906003906020840190620001a1565b50505050506200039c565b828054828255906000526020600020908101928215620001f9579160200282015b82811115620001f957825182546001600160a01b0319166001600160a01b03909116178255602090920191600190910190620001c2565b50620002079291506200020b565b5090565b5b808211156200020757600081556001016200020c565b80516001600160a01b03811681146200023a57600080fd5b919050565b634e487b7160e01b600052604160045260246000fd5b600080600080608085870312156200026c57600080fd5b620002778562000222565b935060206200028881870162000222565b9350620002986040870162000222565b60608701519093506001600160401b0380821115620002b657600080fd5b818801915088601f830112620002cb57600080fd5b815181811115620002e057620002e06200023f565b8060051b604051601f19603f830116810181811085821117156200030857620003086200023f565b60405291825284820192508381018501918b8311156200032757600080fd5b938501935b828510156200035057620003408562000222565b845293850193928501926200032c565b989b979a50959850505050505050565b634e487b7160e01b600052603260045260246000fd5b6000828210156200039757634e487b7160e01b600052601160045260246000fd5b500390565b6108bb80620003ac6000396000f3fe608060405234801561001057600080fd5b50600436106100575760003560e01c80631694505e1461005c5780636daf390b1461008c578063af6d1fe41461009f578063d0202d3b146100b2578063d3986f08146100c5575b600080fd5b60005461006f906001600160a01b031681565b6040516001600160a01b0390911681526020015b60405180910390f35b60015461006f906001600160a01b031681565b61006f6100ad3660046105f5565b6100e6565b60025461006f906001600160a01b031681565b6100d86100d336600461060e565b610110565b604051908152602001610083565b600381815481106100f657600080fd5b6000918252602090912001546001600160a01b0316905081565b60015460009061012b906001600160a01b031633308661020a565b600054600154610148916001600160a01b0391821691168561027b565b600080546040516338ed173960e01b81526001600160a01b03909116906338ed17399061018290879085906003908990429060040161064a565b600060405180830381600087803b15801561019c57600080fd5b505af11580156101b0573d6000803e3d6000fd5b505050506040513d6000823e601f3d908101601f191682016040526101d891908101906106d6565b905080600182516101e99190610794565b815181106101f9576101f96107b9565b602002602001015191505092915050565b6040516001600160a01b03808516602483015283166044820152606481018290526102759085906323b872dd60e01b906084015b60408051601f198184030181529190526020810180516001600160e01b03166001600160e01b0319909316929092179091526103a9565b50505050565b8015806103045750604051636eb1769f60e11b81523060048201526001600160a01b03838116602483015284169063dd62ed3e9060440160206040518083038186803b1580156102ca57600080fd5b505afa1580156102de573d6000803e3d6000fd5b505050506040513d601f19601f8201168201806040525081019061030291906107cf565b155b6103745760405162461bcd60e51b815260206004820152603660248201527f5361666545524332303a20617070726f76652066726f6d206e6f6e2d7a65726f60448201527520746f206e6f6e2d7a65726f20616c6c6f77616e636560501b60648201526084015b60405180910390fd5b6040516001600160a01b0383166024820152604481018290526103a490849063095ea7b360e01b9060640161023e565b505050565b60006103fe826040518060400160405280602081526020017f5361666545524332303a206c6f772d6c6576656c2063616c6c206661696c6564815250856001600160a01b031661047b9092919063ffffffff16565b8051909150156103a4578080602001905181019061041c91906107e8565b6103a45760405162461bcd60e51b815260206004820152602a60248201527f5361666545524332303a204552433230206f7065726174696f6e20646964206e6044820152691bdd081cdd58d8d9595960b21b606482015260840161036b565b606061048a8484600085610494565b90505b9392505050565b6060824710156104f55760405162461bcd60e51b815260206004820152602660248201527f416464726573733a20696e73756666696369656e742062616c616e636520666f6044820152651c8818d85b1b60d21b606482015260840161036b565b843b6105435760405162461bcd60e51b815260206004820152601d60248201527f416464726573733a2063616c6c20746f206e6f6e2d636f6e7472616374000000604482015260640161036b565b600080866001600160a01b0316858760405161055f9190610836565b60006040518083038185875af1925050503d806000811461059c576040519150601f19603f3d011682016040523d82523d6000602084013e6105a1565b606091505b50915091506105b18282866105bc565b979650505050505050565b606083156105cb57508161048d565b8251156105db5782518084602001fd5b8160405162461bcd60e51b815260040161036b9190610852565b60006020828403121561060757600080fd5b5035919050565b6000806040838503121561062157600080fd5b8235915060208301356001600160a01b038116811461063f57600080fd5b809150509250929050565b600060a082018783526020878185015260a0604085015281875480845260c0860191508860005282600020935060005b8181101561069f5784546001600160a01b03168352600194850194928401920161067a565b50506001600160a01b03969096166060850152505050608001529392505050565b634e487b7160e01b600052604160045260246000fd5b600060208083850312156106e957600080fd5b825167ffffffffffffffff8082111561070157600080fd5b818501915085601f83011261071557600080fd5b815181811115610727576107276106c0565b8060051b604051601f19603f8301168101818110858211171561074c5761074c6106c0565b60405291825284820192508381018501918883111561076a57600080fd5b938501935b828510156107885784518452938501939285019261076f565b98975050505050505050565b6000828210156107b457634e487b7160e01b600052601160045260246000fd5b500390565b634e487b7160e01b600052603260045260246000fd5b6000602082840312156107e157600080fd5b5051919050565b6000602082840312156107fa57600080fd5b8151801515811461048d57600080fd5b60005b8381101561082557818101518382015260200161080d565b838111156102755750506000910152565b6000825161084881846020870161080a565b9190910192915050565b602081526000825180602084015261087181604085016020870161080a565b601f01601f1916919091016040019291505056fea2646970667358221220a67538698b33b41c716d24ba45c8c48391b1c8999e69b9e194382702eac15fb764736f6c63430008090033",
  "linkReferences": {},
  "deployedLinkReferences": {}
}